:100000000C942A000C943F000C943F000C943F0089
:100010000C943F000C943F000C943F000C943F0064
:100020000C943F000C943F000C943F000C943F0054
:100030000C943F000C943F000C943F000C943F0044
:100040000C943F000C943F000C943F000C943F0034
:100050000C943F0011241FBECFE5D8E0DEBFCDBF1A
:1000600011E0A0E6B0E0E8E4F6E202C005900D92EF
:10007000AC3AB107D9F70E94E40F0C9422130C9408
:100080000000EF92FF920F931F937B018C0120E001
:1000900030E040E05FE40E94410388238CF0C80117
:1000A000B70120E030E040E05FE40E94B9010E9427
:1000B000FF039B01AC01205030404040504806C037
:1000C000C801B7010E94FF039B01AC01B901CA013D
:1000D0001F910F91FF90EF900895A0E0B0E0E3E74B
:1000E000F0E00C94EB12DC012B01FA019C919230B0
:1000F00008F439C1EB018881823008F433C19430AF
:1001000069F4843009F02FC111969C91119789816F
:10011000981709F428C1A3EAB0E025C1843009F496
:1001200021C18230A9F4923009F01DC19A01AD01BC
:1001300088E0EA010990AE01E90109929E0181502F
:10014000C1F7E201898111969C918923818308C1BD
:10015000923009F407C112962D903C901397EB0151
:100160008A819B811496AD90BD90CD90DC901797BD
:10017000EC80FD800E811F819101281B390BB90194
:1001800037FF04C066277727621B730B6032710547
:100190000CF061C0121613066CF537014801062EEB
:1001A00004C096948794779467940A94D2F721E0D8
:1001B00030E040E050E004C0220F331F441F551FC1
:1001C0006A95D2F721503040404050402E213F21C7
:1001D00040235123211531054105510521F021E02E
:1001E00030E040E050E079018A01E628F72808294C
:1001F00019293CC0232BD1F1260E371E35014601AB
:10020000062E04C096948794779467940A94D2F744
:1002100021E030E040E050E004C0220F331F441FD3
:10022000551F6A95D2F721503040404050402A2156
:100230003B214C215D21211531054105510521F05E
:1002400021E030E040E050E059016A01A628B728DB
:10025000C828D9280BC0821593052CF01C01AA24AC
:10026000BB24650103C0EE24FF24870111969C91F5
:10027000D20111968C91981709F445C0992339F051
:10028000A80197012A193B094C095D0906C0A6017E
:1002900095012E193F09400B510B57FD08C01182E3
:1002A0003382228224833583468357831DC081E0B5
:1002B00081833382228288279927DC01821B930B5A
:1002C000A40BB50B84839583A683B7830DC0220F3F
:1002D000331F441F551F24833583468357838281F0
:1002E000938101979383828324813581468157814D
:1002F000DA01C9010197A109B1098F5F9F4FAF4F83
:10030000BF4328F30BC0918333822282EA0CFB1C8B
:100310000C1D1D1DE482F5820683178383E0808314
:10032000248135814681578157FF1AC0C901AA2708
:1003300097FDA095BA2F81709070A070B0705695FF
:10034000479537952795822B932BA42BB52B848328
:100350009583A683B7838281938101969383828359
:10036000DF0101C0D201CD01CDB7DEB7E2E10C94CF
:100370000713A0E2B0E0EFEBF1E00C94F712698311
:100380007A838B839C832D833E834F835887E9E058
:10039000EE2EF12CEC0EFD1ECE010196B7010E944F
:1003A00077058E010F5E1F4FCE010596B8010E94A2
:1003B00077058A8991E089278A8BC701B801AE0148
:1003C000475E5F4F0E946D000E94A204A096E6E087
:1003D0000C941313A0E2B0E0E0EFF1E00C94F712FC
:1003E00069837A838B839C832D833E834F835887D5
:1003F000F9E0EF2EF12CEC0EFD1ECE010196B701B7
:100400000E9477058E010F5E1F4FCE010596B80141
:100410000E947705C701B801AE01475E5F4F0E9499
:100420006D000E94A204A096E6E00C941313A0E2D3
:10043000B0E0EDE1F2E00C94EB1269837A838B83F8
:100440009C832D833E834F835887CE010196BE0146
:10045000675F7F4F0E947705CE010596BE016F5EF4
:100460007F4F0E9477059985923088F08989823084
:10047000C8F0943019F4823051F404C0843029F467
:10048000923081F483EA90E0C6C0923049F420E0D3
:100490009A858A89981321E02A87CE010996BBC0E4
:1004A000823049F420E09A858A89981321E02A8BCA
:1004B000CE014196B0C02D843E844F8458886D880B
:1004C0007E888F88988CEE24FF248701AA24BB2481
:1004D000650140E050E060E070E0E0E0F0E0C10184
:1004E00081709070892BE9F0E60CF71C081D191D2E
:1004F0009A01AB012A0D3B1D4C1D5D1D80E090E073
:10050000A0E0B0E0E614F7040805190520F481E046
:1005100090E0A0E0B0E0BA01A901480F591F6A1F9E
:100520007B1FAA0CBB1CCC1CDD1C97FE08C081E005
:1005300090E0A0E0B0E0A82AB92ACA2ADB2A3196C6
:10054000E032F10549F0660C771C881C991C569422
:10055000479437942794C3CFFA85EA892B893C893D
:100560008B859C85280F391F2E5F3F4F17C0CA010E
:1005700081709070892B61F016950795F794E79438
:1005800080E090E0A0E0B0E8E82AF92A0A2B1B2BD3
:1005900076956795579547952F5F3F4F77FDE7CF46
:1005A0000CC0440F551F661F771F17FD4160EE0CEE
:1005B000FF1C001F111F21503040403090E05907B0
:1005C00090E0690790E4790760F32B8F3C8FDB01A3
:1005D000CA018F779070A070B07080349105A1052A
:1005E000B10561F447FD0AC0E114F10401051105EC
:1005F00029F0405C5F4F6F4F7F4F40781A8EFE1797
:1006000011F081E08A8F4D8F5E8F6F8F78A383E02A
:10061000898FCE0149960E94A204A096E2E10C9433
:100620000713A8E1B0E0E7E1F3E00C94F712698367
:100630007A838B839C832D833E834F83588789E005
:10064000E82EF12CEC0EFD1ECE010196B7010E94A2
:1006500077058E010F5E1F4FCE010596B8010E94EF
:1006600077058985823040F08989823028F0C7017A
:10067000B8010E94EF0501C08FEF6896E6E00C9488
:100680001313A8E1B0E0E7E4F3E00C94F7126983F8
:100690007A838B839C832D833E834F83588789E0A5
:1006A000E82EF12CEC0EFD1ECE010196B7010E9442
:1006B00077058E010F5E1F4FCE010596B8010E948F
:1006C00077058985823040F08989823028F0C7011A
:1006D000B8010E94EF0501C08FEF6896E6E00C9428
:1006E0001313A8E1B0E0E7E7F3E00C94F712698395
:1006F0007A838B839C832D833E834F83588789E045
:10070000E82EF12CEC0EFD1ECE010196B7010E94E1
:1007100077058E010F5E1F4FCE010596B8010E942E
:1007200077058985823040F08989823028F0C701B9
:10073000B8010E94EF0501C081E06896E6E00C94E4
:100740001313A8E0B0E0E7EAF3E00C94F4129B0185
:10075000AC0183E08983DA01C9018827B7FD83955D
:100760009927AA27BB27B82E211531054105510528
:1007700019F482E089833AC08823A9F0203080E010
:10078000380780E0480780E8580729F460E070E007
:1007900080E09FEC30C0EE24FF248701E21AF30AC8
:1007A000040B150B02C079018A018EE1C82ED12CF1
:1007B000DC82CB82ED82FE820F831887C801B701ED
:1007C0000E94530401971816190684F4082E04C0D9
:1007D000EE0CFF1C001F111F0A94D2F7ED82FE825F
:1007E0000F831887C81AD90ADC82CB82BA82CE015D
:1007F00001960E94A2042896E9E00C941013ACE044
:10080000B0E0E5E0F4E00C94FB1269837A838B831B
:100810009C83CE010196BE016B5F7F4F0E947705DE
:100820008D81823061F1823050F1843021F48E81EB
:10083000882351F12EC02F81388537FD20C06E816D
:100840002F3131051CF06623F9F023C08EE190E0D2
:10085000821B930B29853A854B855C8504C0569590
:100860004795379527958A95D2F76623B1F050952D
:100870004095309521953F4F4F4F5F4F0EC020E080
:1008800030E040E050E009C02FEF3FEF4FEF5FE76F
:1008900004C020E030E040E050E8B901CA012C96E5
:1008A000E2E00C941713EF92FF920F931F937B01DA
:1008B0008C0180E0E81680E0F80681E0080780E01F
:1008C000180788F48FEFE816F1040105110531F0DF
:1008D00028F088E090E0A0E0B0E017C080E090E071
:1008E000A0E0B0E012C080E0E81680E0F80680E00A
:1008F000080781E0180728F088E190E0A0E0B0E068
:1009000004C080E190E0A0E0B0E020E230E040E010
:1009100050E0281B390B4A0B5B0B04C0169507955A
:10092000F794E7948A95D2F7F701E555FF4F808158
:10093000281B310941095109C9011F910F91FF90ED
:10094000EF900895DF92EF92FF920F931F93FC01B7
:10095000E480F58006811781D1808081823048F45F
:1009600080E090E0A0E1B0E0E82AF92A0A2B1B2BF6
:10097000A5C0843009F49FC0823021F4EE24FF2406
:10098000870105C0E114F1040105110519F4E0E047
:10099000F0E096C0628173819FEF623879070CF0B6
:1009A0005BC022E83FEF261B370B2A3131052CF0C4
:1009B00020E030E040E050E02AC0B801A701022E5C
:1009C00004C076956795579547950A94D2F781E0CC
:1009D00090E0A0E0B0E004C0880F991FAA1FBB1FE1
:1009E0002A95D2F70197A109B1098E219F21A02351
:1009F000B1230097A105B10521F081E090E0A0E0CE
:100A0000B0E09A01AB01282B392B4A2B5B2BDA0182
:100A1000C9018F779070A070B07080349105A105E6
:100A2000B10539F427FF09C0205C3F4F4F4F5F4F9E
:100A300004C0215C3F4F4F4F5F4FE0E0F0E02030BB
:100A4000A0E03A07A0E04A07A0E45A0710F0E1E06E
:100A5000F0E079018A0127C06038710564F5FB0177
:100A6000E158FF4FD801C7018F779070A070B07028
:100A700080349105A105B10539F4E7FE0DC080E48D
:100A800090E0A0E0B0E004C08FE390E0A0E0B0E030
:100A9000E80EF91E0A1F1B1F17FF05C016950795C4
:100AA000F794E794319687E016950795F794E794C5
:100AB0008A95D1F705C0EE24FF248701EFEFF0E01F
:100AC0006E2F679566276795902F9F77D794DD24C3
:100AD000D7948E2F8695492F462B582F5D29B70125
:100AE000CA011F910F91FF90EF90DF900895FC01D4
:100AF000DB01408151812281622F6F7770E0221FDC
:100B00002227221F9381892F880F822B282F30E0E4
:100B1000991F9927991F11969C93119721153105BB
:100B2000A9F5411551056105710511F482E037C041
:100B300082E89FEF13969C938E9312979A01AB01D4
:100B400067E0220F331F441F551F6A95D1F783E0DA
:100B50008C930DC0220F331F441F551F12968D9189
:100B60009C911397019713969C938E931297203024
:100B700080E0380780E0480780E4580758F314966F
:100B80002D933D934D935C93179708952F3F310517
:100B900079F4411551056105710519F484E08C93D0
:100BA000089564FF03C081E08C9312C01C9210C0B2
:100BB0002F57304013963C932E93129783E08C93DB
:100BC00087E0440F551F661F771F8A95D1F7706421
:100BD00014964D935D936D937C93179708951F938F
:100BE000DC01FB019C91923008F447C08081823087
:100BF00008F443C0943051F411961C91843099F557
:100C00008181682F70E0611B71093FC0843021F041
:100C1000923031F48230B9F18181882389F12DC07D
:100C200011961C9111978230F1F081811817D9F437
:100C300012962D913C91139782819381821793078D
:100C400094F028173907BCF014968D919D910D9062
:100C5000BC91A02D24813581468157812817390701
:100C60004A075B0718F4112341F00AC08217930763
:100C7000A407B50740F4112319F061E070E005C046
:100C80006FEF7FEF02C060E070E0CB011F9108952D
:100C9000DF93CF93CDB7DEB781E063E041E00E9400
:100CA000DD06A3E5B0E0E3E5F0E0808180648C93AD
:100CB000A3E5B0E0E3E5F0E0808188608C93A3E5F4
:100CC000B0E0E3E5F0E0808180628C93A3E5B0E0E2
:100CD000E3E5F0E080818F7E8C93A3E5B0E0E3E56F
:100CE000F0E0808181608C93A3E5B0E0E3E5F0E083
:100CF000808182608C93A3E5B0E0E3E5F0E0808141
:100D00008B7F8C93CF91DF910895DF93CF930F92D8
:100D1000CDB7DEB78983ECE5F0E0898180830F9061
:100D2000CF91DF910895DF93CF9300D00F92CDB78D
:100D3000DEB79A8389836B83ECE3F0E08081882FB0
:100D400090E0827090700097B9F7EEE3F0E089814F
:100D50009A8191838083EDE3F0E08B818083E29A36
:100D6000E19A0F900F900F90CF91DF910895DF934C
:100D7000CF9300D0CDB7DEB79A838983ECE3F0E060
:100D800080818695882F90E0817090708823B1F7DC
:100D9000EEE3F0E089819A8191838083ACE3B0E057
:100DA000ECE3F0E0808181608C93EDE3F0E0808102
:100DB0000F900F90CF91DF910895DF93CF9300D0E4
:100DC00000D00F92CDB7DEB789836A834B838981C8
:100DD000282F30E03D832C838C819D8181309105CB
:100DE00009F443C02C813D81223031052CF48C81E3
:100DF0009D81009771F0BCC02C813D81223031056E
:100E000009F45FC08C819D818330910509F485C010
:100E1000AFC08B818823A9F4AAE3B0E0EAE3F0E055
:100E20008081482F8A81282F30E081E090E0022ED7
:100E300002C0880F991F0A94E2F7809584238C934F
:100E400097C0AAE3B0E0EAE3F0E08081482F8A810E
:100E5000282F30E081E090E0022E02C0880F991F19
:100E60000A94E2F7842B8C9383C08B818823A9F4A6
:100E7000A7E3B0E0E7E3F0E08081482F8A81282FE4
:100E800030E081E090E0022E02C0880F991F0A94A2
:100E9000E2F7809584238C936BC0A7E3B0E0E7E38F
:100EA000F0E08081482F8A81282F30E081E090E0B7
:100EB000022E02C0880F991F0A94E2F7842B8C93AC
:100EC00057C08B818823A9F4A4E3B0E0E4E3F0E009
:100ED0008081482F8A81282F30E081E090E0022E27
:100EE00002C0880F991F0A94E2F7809584238C939F
:100EF0003FC0A4E3B0E0E4E3F0E08081482F8A81C2
:100F0000282F30E081E090E0022E02C0880F991F68
:100F10000A94E2F7842B8C932BC08B818823A9F44D
:100F2000A1E3B0E0E1E3F0E08081482F8A81282F3F
:100F300030E081E090E0022E02C0880F991F0A94F1
:100F4000E2F7809584238C9313C0A1E3B0E0E1E342
:100F5000F0E08081482F8A81282F30E081E090E006
:100F6000022E02C0880F991F0A94E2F7842B8C93FB
:100F70000F900F900F900F900F90CF91DF910895E9
:100F8000DF93CF9300D000D00F92CDB7DEB7898327
:100F90006A834B838981282F30E03D832C838C81A9
:100FA0009D818130910509F443C02C813D8122301F
:100FB00031052CF48C819D81009771F0BCC02C818F
:100FC0003D812230310509F45FC08C819D818330E1
:100FD000910509F485C0AFC08B818823A9F4ABE3E8
:100FE000B0E0EBE3F0E08081482F8A81282F30E0E9
:100FF00081E090E0022E02C0880F991F0A94E2F768
:10100000809584238C9397C0ABE3B0E0EBE3F0E0F2
:101010008081482F8A81282F30E081E090E0022EE5
:1010200002C0880F991F0A94E2F7842B8C9383C027
:101030008B818823A9F4A8E3B0E0E8E3F0E08081A5
:10104000482F8A81282F30E081E090E0022E02C0F4
:10105000880F991F0A94E2F7809584238C936BC0C4
:10106000A8E3B0E0E8E3F0E08081482F8A81282FF0
:1010700030E081E090E0022E02C0880F991F0A94B0
:10108000E2F7842B8C9357C08B818823A9F4A5E3C6
:10109000B0E0E5E3F0E08081482F8A81282F30E03E
:1010A00081E090E0022E02C0880F991F0A94E2F7B7
:1010B000809584238C933FC0A5E3B0E0E5E3F0E0A6
:1010C0008081482F8A81282F30E081E090E0022E35
:1010D00002C0880F991F0A94E2F7842B8C932BC0CF
:1010E0008B818823A9F4A2E3B0E0E2E3F0E0808101
:1010F000482F8A81282F30E081E090E0022E02C044
:10110000880F991F0A94E2F7809584238C9313C06B
:10111000A2E3B0E0E2E3F0E08081482F8A81282F4B
:1011200030E081E090E0022E02C0880F991F0A94FF
:10113000E2F7842B8C930F900F900F900F900F90ED
:10114000CF91DF910895DF93CF9300D000D0CDB73A
:10115000DEB789836A838981282F30E03C832B8323
:101160008B819C818130910549F12B813C8122301A
:1011700031052CF48B819C81009761F05AC02B8142
:101180003C812230310571F18B819C818330910546
:10119000E9F14FC0ABE3B0E0EBE3F0E08081482F32
:1011A0008A81282F30E081E090E0022E02C0880F73
:1011B000991F0A94E2F784278C933BC0A8E3B0E020
:1011C000E8E3F0E08081482F8A81282F30E081E039
:1011D00090E0022E02C0880F991F0A94E2F784273C
:1011E0008C9327C0A5E3B0E0E5E3F0E08081482FD1
:1011F0008A81282F30E081E090E0022E02C0880F23
:10120000991F0A94E2F784278C9313C0A2E3B0E0FD
:10121000E2E3F0E08081482F8A81282F30E081E0EE
:1012200090E0022E02C0880F991F0A94E2F78427EB
:101230008C930F900F900F900F90CF91DF910895A6
:10124000DF93CF9300D000D00F92CDB7DEB78A8363
:101250006B8319828A81282F30E03D832C834C8157
:101260005D814130510541F18C819D818230910534
:1012700034F42C813D812115310561F052C04C813F
:101280005D814230510551F18C819D818330910502
:10129000B9F147C0E9E3F0E08081282F30E08B818D
:1012A000882F90E0A90102C0559547958A95E2F7ED
:1012B000CA018170898335C0E6E3F0E08081282F80
:1012C00030E08B81882F90E0A90102C055954795A9
:1012D0008A95E2F7CA018170898323C0E3E3F0E0D5
:1012E0008081282F30E08B81882F90E0A90102C0F7
:1012F000559547958A95E2F7CA018170898311C097
:10130000E0E3F0E08081282F30E08B81882F90E0AF
:10131000A90102C0559547958A95E2F7CA018170E7
:10132000898389810F900F900F900F900F90CF912C
:10133000DF910895DF93CF9300D000D0CDB7DEB713
:1013400089836A838981282F30E03C832B838B81BA
:101350009C8181309105D1F02B813C812230310577
:101360002CF48B819C81009761F01EC02B813C8105
:101370002230310581F08B819C818330910581F091
:1013800013C0EAE3F0E08A8180830EC0E7E3F0E077
:101390008A81808309C0E4E3F0E08A81808304C00D
:1013A000E1E3F0E08A8180830F900F900F900F901F
:1013B000CF91DF910895DF93CF9300D000D0CDB7C8
:1013C000DEB789836A838981282F30E03C832B83B1
:1013D0008B819C8181309105D1F02B813C81223021
:1013E00031052CF48B819C81009761F01EC02B810C
:1013F0003C812230310581F08B819C8183309105C5
:1014000081F013C0EBE3F0E08A8180830EC0E8E353
:10141000F0E08A81808309C0E5E3F0E08A8180837F
:1014200004C0E2E3F0E08A8180830F900F900F9078
:101430000F90CF91DF910895DF93CF9300D00F925B
:10144000CDB7DEB789838981282F30E03B832A839B
:101450008A819B8181309105E9F02A813B8122308C
:1014600031052CF48A819B81009761F02AC02A8182
:101470003B8122303105B1F08A819B818330910517
:10148000C9F01FC0ABE3B0E0EBE3F0E080818095F2
:101490008C9317C0A8E3B0E0E8E3F0E0808180958A
:1014A0008C930FC0A5E3B0E0E5E3F0E08081809588
:1014B0008C9307C0A2E3B0E0E2E3F0E08081809586
:1014C0008C930F900F900F90CF91DF910895DF9341
:1014D000CF9300D000D0CDB7DEB78A8319828A813E
:1014E000282F30E03C832B838B819C8181309105B8
:1014F000D1F02B813C81223031052CF48B819C81F1
:10150000009761F01EC02B813C812230310581F0B3
:101510008B819C818330910581F013C0E9E3F0E079
:10152000808189830EC0E6E3F0E08081898309C071
:10153000E3E3F0E08081898304C0E0E3F0E08081B0
:10154000898389810F900F900F900F90CF91DF9139
:101550000895DF93CF93CDB7DEB7A7E2B0E0E7E21F
:10156000F0E0808180648C93A7E2B0E0E7E2F0E0F5
:1015700080818F778C93A7E2B0E0E7E2F0E0808192
:101580008F7D8C93A6E2B0E0E6E2F0E08081887F78
:1015900086608C93A6E2B0E0E6E2F0E080818068AD
:1015A0008C93CF91DF910895DF93CF930F92CDB7B6
:1015B000DEB78983A7E2B0E0E7E2F0E08081982F10
:1015C000907E89818F71892B8C93A6E2B0E0E6E250
:1015D000F0E0808180648C93E6E2F0E08081829587
:1015E0008F70882F90E0817090700097A9F3A6E229
:1015F000B0E0E6E2F0E0808180618C93E4E2F0E02C
:10160000808191810F90CF91DF910895DF93CF93E7
:10161000CDB7DEB782E060E041E00E94DD0682E007
:1016200061E041E00E94DD060E944806CF91DF9113
:101630000895DF93CF9300D00F92CDB7DEB78983A3
:101640008981282F30E03B832A838A819B818130E6
:10165000910531F02A813B812230310561F016C0BD
:1016600082E060E041E00E94C00782E061E040E08B
:101670000E94C00715C082E060E040E00E94C00701
:1016800082E061E041E00E94C0070AC082E060E0C1
:1016900040E00E94C00782E061E040E00E94C00795
:1016A0000F900F900F90CF91DF910895DF93CF931C
:1016B0000F92CDB7DEB7898389810E9485060F908E
:1016C000CF91DF910895DF93CF93CDB7DEB70E941E
:1016D000A90ACF91DF910895DF93CF9300D0CDB7C2
:1016E000DEB780E00E94D40A9A83898389819A8137
:1016F000CC01A0E0B0E024EF31E040E050E0BC01DC
:10170000CD010E948F12DC01CB0180509E4FAF4F64
:10171000BF4F072E7AE0B695A795979587957A954E
:10172000D1F7702D0F900F90CF91DF910895DF9337
:10173000CF93CDB7DEB76D970FB6F894DEBF0FBE6F
:10174000CDBF8D8F8D8D982F917083E064E0492FF0
:101750000E94C0078D8D8695982F917083E065E07B
:10176000492F0E94C0078D8D86958695982F917080
:1017700083E066E0492F0E94C0078D8D869586958F
:101780008695982F917083E067E0492F0E94C007EB
:1017900083E063E041E00E94C00780E090E0A0E0C9
:1017A000B0E4898F9A8FAB8FBC8F698D7A8D8B8DCA
:1017B0009C8D20E030E04AEF54E40E941702DC01E7
:1017C000CB018D8B9E8BAF8BB88F6D897E898F8976
:1017D000988D20E030E040E85FE30E9471038823A9
:1017E0002CF481E090E09C8B8B8B3FC06D897E89CF
:1017F0008F89988D20E03FEF4FE757E40E94110357
:1018000018164CF5698D7A8D8B8D9C8D20E030E01B
:1018100040E251E40E941702DC01CB01BC01CD0182
:101820000E944100DC01CB019C8B8B8B0FC088ECAC
:1018300090E09A8B898B89899A890197F1F79A8B25
:10184000898B8B899C8901979C8B8B8B8B899C893D
:10185000009769F714C06D897E898F89988D0E94E1
:101860004100DC01CB019C8B8B8B8B899C89988BF5
:101870008F878F8598890197F1F7988B8F8783E001
:1018800063E040E00E94C00780E090E0A0E0B0E4A8
:101890008B879C87AD87BE876B857C858D859E8574
:1018A00020E030E04AEF54E40E941702DC01CB0153
:1018B0008F839887A987BA876F81788589859A856C
:1018C00020E030E040E85FE30E94710388232CF4BD
:1018D00081E090E09E838D833FC06F81788589850C
:1018E0009A8520E03FEF4FE757E40E941103181656
:1018F0004CF56B857C858D859E8520E030E040E24F
:1019000051E40E941702DC01CB01BC01CD010E9411
:101910004100DC01CB019E838D830FC088EC90E0F9
:101920009C838B838B819C810197F1F79C838B83B4
:101930008D819E8101979E838D838D819E810097ED
:1019400069F714C06F81788589859A850E94410066
:10195000DC01CB019E838D838D819E819A83898357
:1019600089819A810197F1F79A8389836D960FB6E1
:10197000F894DEBF0FBECDBFCF91DF910895DF9306
:10198000CF930F92CDB7DEB7898383E062E040E06A
:101990000E94C007898182958F700E94970B898170
:1019A0008F700E94970B0F90CF91DF910895DF9376
:1019B000CF930F92CDB7DEB7898383E062E041E039
:1019C0000E94C007898182958F700E94970B898140
:1019D0008F700E94970B0F90CF91DF910895DF9346
:1019E000CF93CDB7DEB7AA970FB6F894DEBF0FBE80
:1019F000CDBF83E062E041E00E94DD0683E063E06A
:101A000041E00E94DD0683E064E041E00E94DD06E3
:101A100083E065E041E00E94DD0683E066E041E0AE
:101A20000E94DD0683E067E041E00E94DD0680E081
:101A300090E0A0E2B2E48FA398A7A9A7BAA76FA1EC
:101A400078A589A59AA520E030E04AEF54E40E94E9
:101A50001702DC01CB018BA39CA3ADA3BEA36BA19A
:101A60007CA18DA19EA120E030E040E85FE30E94D0
:101A7000710388232CF481E090E09AA389A33FC0EE
:101A80006BA17CA18DA19EA120E03FEF4FE757E421
:101A90000E94110318164CF56FA178A589A59AA587
:101AA00020E030E040E251E40E941702DC01CB016B
:101AB000BC01CD010E944100DC01CB019AA389A3A6
:101AC0000FC088EC90E098A38F8F8F8D98A101971D
:101AD000F1F798A38F8F89A19AA101979AA389A35F
:101AE00089A19AA1009769F714C06BA17CA18DA16F
:101AF0009EA10E944100DC01CB019AA389A389A188
:101B00009AA19E8F8D8F8D8D9E8D0197F1F79E8F5F
:101B10008D8F82E00E94970B88E20E94BF0C80E0CC
:101B200090E0A0E8BFE3898F9A8FAB8FBC8F698D5F
:101B30007A8D8B8D9C8D20E030E04AEF54E40E943A
:101B40001702DC01CB018D8B9E8BAF8BB88F6D891B
:101B50007E898F89988D20E030E040E85FE30E9425
:101B6000710388232CF481E090E09C8B8B8B3FC029
:101B70006D897E898F89988D20E03FEF4FE757E48C
:101B80000E94110318164CF5698D7A8D8B8D9C8DF2
:101B900020E030E040E251E40E941702DC01CB017A
:101BA000BC01CD010E944100DC01CB019C8B8B8BE1
:101BB0000FC088EC90E09A8B898B89899A8901976C
:101BC000F1F79A8B898B8B899C8901979C8B8B8BE6
:101BD0008B899C89009769F714C06D897E898F89EC
:101BE000988D0E944100DC01CB019C8B8B8B8B89F3
:101BF0009C89988B8F878F8598890197F1F7988BAF
:101C00008F878CE00E94BF0C80E090E0A0E8BFE3EB
:101C10008B879C87AD87BE876B857C858D859E85F0
:101C200020E030E04AEF54E40E941702DC01CB01CF
:101C30008F839887A987BA876F81788589859A85E8
:101C400020E030E040E85FE30E94710388232CF439
:101C500081E090E09E838D833FC06F817885898588
:101C60009A8520E03FEF4FE757E40E9411031816D2
:101C70004CF56B857C858D859E8520E030E040E2CB
:101C800051E40E941702DC01CB01BC01CD010E948E
:101C90004100DC01CB019E838D830FC088EC90E076
:101CA0009C838B838B819C810197F1F79C838B8331
:101CB0008D819E8101979E838D838D819E8100976A
:101CC00069F714C06F81788589859A850E944100E3
:101CD000DC01CB019E838D838D819E819A838983D4
:101CE00089819A810197F1F79A8389830E943C0F39
:101CF000AA960FB6F894DEBF0FBECDBFCF91DF918D
:101D00000895DF93CF9300D00F92CDB7DEB79B83BA
:101D10008A8319820EC08981282F30E08A819B81B5
:101D2000FC01E20FF31F80810E94D70C89818F5F35
:101D300089838981282F30E08A819B81FC01E20F11
:101D4000F31F8081882339F70F900F900F90CF9168
:101D5000DF9108950F931F93DF93CF93CDB7DEB735
:101D60002F970FB6F894DEBF0FBECDBF6C877D876F
:101D70008E879F8719828C859D85AE85BF8500974C
:101D8000A105B10521F480E30E94D70C6AC08C85BF
:101D90009D85AE85BF85BB230CF043C08DE20E94BC
:101DA000D70C8C859D85AE85BF85B095A095909507
:101DB00081959F4FAF4FBF4F8C879D87AE87BF8761
:101DC00030C08981082F112707FD10958C859D85CE
:101DD000AE85BF852AE030E040E050E0BC01CD0197
:101DE0000E94AE12DC01CB01282F205DCE010296AD
:101DF000FC01E00FF11F20838C859D85AE85BF859A
:101E00002AE030E040E050E0BC01CD010E94AE127B
:101E1000DA01C9018C879D87AE87BF8789818F5F73
:101E200089838C859D85AE85BF85181619061A068F
:101E30001B063CF289818150898310C08981282F3B
:101E4000332727FD3095CE010296FC01E20FF31FE8
:101E500080810E94D70C8981815089838981882360
:101E60006CF72F960FB6F894DEBF0FBECDBFCF91A3
:101E7000DF911F910F910895DF93CF93CDB7DEB718
:101E80002E970FB6F894DEBF0FBECDBF81E00E9443
:101E9000BF0C80E090E0A0E0B0E48B879C87AD872A
:101EA000BE876B857C858D859E8520E030E04AEF7E
:101EB00054E40E941702DC01CB018F839887A98725
:101EC000BA876F81788589859A8520E030E040E87F
:101ED0005FE30E94710388232CF481E090E09E83ED
:101EE0008D833FC06F81788589859A8520E03FEF9B
:101EF0004FE757E40E94110318164CF56B857C855B
:101F00008D859E8520E030E040E251E40E9417027A
:101F1000DC01CB01BC01CD010E944100DC01CB0101
:101F20009E838D830FC088EC90E09C838B838B8194
:101F30009C810197F1F79C838B838D819E81019712
:101F40009E838D838D819E81009769F714C06F8178
:101F5000788589859A850E944100DC01CB019E83AA
:101F60008D838D819E819A83898389819A8101974E
:101F7000F1F79A8389832E960FB6F894DEBF0FBED1
:101F8000CDBFCF91DF910895DF93CF9300D000D0E4
:101F9000CDB7DEB78A836B838A81882329F48B814E
:101FA000982F90589C8304C08B81982F90549C83C9
:101FB0008C81898389810E94BF0C0F900F900F90B4
:101FC0000F90CF91DF910895DF93CF93CDB7DEB718
:101FD000E0970FB6F894DEBF0FBECDBF1EA689E115
:101FE0008DA71CA61BA60E94630B0E94EF0C0E94EB
:101FF000060B82E062E041E00E94DD0682E063E0E1
:1020000041E00E94DD0681E060E040E00E94DD06E4
:1020100081E060E041E00E94C00781E061E040E0D3
:102020000E94DD0681E061E041E00E94C00780E39C
:1020300090E00E94B7068A3A69F080E290E069E198
:102040000E94930680E390E06AEA0E94930689E189
:102050008DA70AC080E290E00E94B7068DA78DA5EB
:102060008D3110F08CE18DA70E946C0B8EA781E062
:1020700060E00E942009882309F089C080E090E098
:10208000A0EFB1E48FA398A7A9A7BAA76FA178A5DD
:1020900089A59AA520E030E04AEF54E40E94170297
:1020A000DC01CB018BA39CA3ADA3BEA36BA17CA140
:1020B0008DA19EA120E030E040E85FE30E94710323
:1020C00088232CF481E090E09AA389A33FC06BA100
:1020D0007CA18DA19EA120E03FEF4FE757E40E9435
:1020E000110318164CF56FA178A589A59AA520E0D3
:1020F00030E040E251E40E941702DC01CB01BC0158
:10210000CD010E944100DC01CB019AA389A30FC03D
:1021100088EC90E098A38F8F8F8D98A10197F1F7AD
:1021200098A38F8F89A19AA101979AA389A389A1C6
:102130009AA1009769F714C06BA17CA18DA19EA103
:102140000E944100DC01CB019AA389A389A19AA135
:102150009E8F8D8F8D8D9E8D0197F1F79E8F8D8F28
:1021600081E060E00E942009882389F48DA58C31EC
:1021700040F48DA58F5F8DA780E290E06DA50E9451
:10218000930681E060E00E9420098823D1F381E07A
:1021900061E00E942009882309F089C080E090E076
:1021A000A0EFB1E4898F9A8FAB8FBC8F698D7A8D48
:1021B0008B8D9C8D20E030E04AEF54E40E941702A2
:1021C000DC01CB018D8B9E8BAF8BB88F6D897E89A7
:1021D0008F89988D20E030E040E85FE30E94710332
:1021E00088232CF481E090E09C8B8B8B3FC06D8921
:1021F0007E898F89988D20E03FEF4FE757E40E945A
:10220000110318164CF5698D7A8D8B8D9C8D20E00D
:1022100030E040E251E40E941702DC01CB01BC0136
:10222000CD010E944100DC01CB019C8B8B8B0FC048
:1022300088EC90E09A8B898B89899A890197F1F7CC
:102240009A8B898B8B899C8901979C8B8B8B8B8933
:102250009C89009769F714C06D897E898F89988D54
:102260000E944100DC01CB019C8B8B8B8B899C896C
:10227000988B8F878F8598890197F1F7988B8F8737
:1022800081E061E00E942009882389F48DA58823DC
:1022900041F08DA581508DA780E290E06DA50E9450
:1022A000930681E061E00E9420098823D1F380E059
:1022B00060E00E94C40F80E690E00E94810E8EA52F
:1022C000882F90E0A0E0B0E0BC01CD010E94AA0EF2
:1022D00083E690E00E94810E8DA5882F90E0A0E01B
:1022E000B0E0BC01CD010E94AA0E8BE690E00E94F6
:1022F000810E81E060E00E94C40F9EA58DA5981715
:10230000A9F480E790E00E94810E82E062E040E064
:102310000E94C00782E063E040E00E94C00780E0C6
:102320000E94190B80E00E94560B86C09EA58DA5C9
:10233000891708F041C081E890E00E94810E82E098
:1023400062E040E00E94C00782E063E041E00E945A
:10235000C0079EA58DA5292F281B822F8CA78CA591
:102360008A30F8F48CA5882F90E0AA2797FDA095D5
:10237000BA2FBC01CD010E94A103DC01CB01BC013D
:10238000CD0120E030E04CEC51E40E941702DC016A
:10239000CB01BC01CD010E944100DC01CB0188AB27
:1023A00002C08FEF88AB28A92BA782E00E94190BEF
:1023B0008BA50E94560B40C082E990E00E94810EDE
:1023C00082E062E041E00E94C00782E063E040E01A
:1023D0000E94C0079DA58EA5292F281B822F8CA7A0
:1023E0008CA58A30F8F48CA5882F90E0AA2797FD59
:1023F000A095BA2FBC01CD010E94A103DC01CB0145
:10240000BC01CD0120E030E04CEC51E40E94170209
:10241000DC01CB01BC01CD010E944100DC01CB01FC
:102420008FA702C08FEF8FA72FA52BA781E00E9457
:10243000190B8BA50E94560B80E090E0A6E1B3E457
:102440008B879C87AD87BE876B857C858D859E85B8
:1024500020E030E04AEF54E40E941702DC01CB0197
:102460008F839887A987BA876F81788589859A85B0
:1024700020E030E040E85FE30E94710388232CF401
:1024800081E090E09E838D833FC06F817885898550
:102490009A8520E03FEF4FE757E40E94110318169A
:1024A0004CF56B857C858D859E8520E030E040E293
:1024B00051E40E941702DC01CB01BC01CD010E9456
:1024C0004100DC01CB019E838D830FC088EC90E03E
:1024D0009C838B838B819C810197F1F79C838B83F9
:1024E0008D819E8101979E838D838D819E81009732
:1024F00069F7BACD6F81788589859A850E944100F8
:10250000DC01CB019E838D838D819E819A8389839B
:1025100089819A810197F1F79A838983A5CD629F7A
:10252000D001739FF001829FE00DF11D649FE00DCB
:10253000F11D929FF00D839FF00D749FF00D659F2C
:10254000F00D9927729FB00DE11DF91F639FB00D2B
:10255000E11DF91FBD01CF011124089597FB092E3C
:1025600005260ED057FD04D014D00AD0001C38F434
:1025700050954095309521953F4F4F4F5F4F0895AF
:10258000F6F790958095709561957F4F8F4F9F4F8F
:102590000895A1E21A2EAA1BBB1BFD010DC0AA1FA4
:1025A000BB1FEE1FFF1FA217B307E407F50720F0BC
:1025B000A21BB30BE40BF50B661F771F881F991F37
:1025C0001A9469F760957095809590959B01AC0180
:1025D000BD01CF0108952F923F924F925F926F926B
:1025E0007F928F929F92AF92BF92CF92DF92EF92A3
:1025F000FF920F931F93CF93DF93CDB7DEB7CA1B24
:10260000DB0B0FB6F894DEBF0FBECDBF09942A884E
:10261000398848885F846E847D848C849B84AA84F6
:10262000B984C884DF80EE80FD800C811B81AA8183
:10263000B981CE0FD11D0FB6F894DEBF0FBECDBF4E
:08264000ED010895F894FFCFAD
:10264800543A004320205365743A00432020200068
:102658004D6F64653A204F464620202020202020D8
:10266800004D6F64653A20434F4F4C494E47202038
:1026780020004D6F64653A2048454154494E472033
:1026880020200000000000000000000001020203FA
:1026980003030304040404040404040505050505F0
:1026A80005050505050505050505050606060606CD
:1026B80006060606060606060606060606060606B2
:1026C800060606060606060606060607070707079D
:1026D8000707070707070707070707070707070782
:1026E8000707070707070707070707070707070772
:1026F8000707070707070707070707070707070762
:10270800070707070707070707070708080808084C
:102718000808080808080808080808080808080831
:102728000808080808080808080808080808080821
:102738000808080808080808080808080808080811
:102748000808080808080808080808080808080801
:1027580008080808080808080808080808080808F1
:1027680008080808080808080808080808080808E1
:1027780008080808080808080808080808080808D1
:0C278800080808080808080808080800ED
:00000001FF
